:400000000080002011000000251700002517000008B5044B1A6803F53F5302331A6001F0A1FB00BFFA46004010B5054C237833B9044B13B10448AFF300800123237010BD62
:400040005881FF1F0000000018250000084B10B51BB108490848AFF300800848036803B910BD074B002BFBD0BDE81040184700BF000000005C81FF1F18250000C880FF1F68
:4000800000000000034B044ADA62044A9A63044ADA6370470080FF1F1104000071040000B504000008B500F061F800F087F800F007F900F05FF908BD08B54FF4FA7001F02D
:4000C000DDFB62B6FFF7DEFFFFF7ECFF00F0A2FDFEE700BF4FF0A00383F31188BFF36F8FBFF34F8FFEE700BF08B501F041FC01F0F5FC01F001FD01F07DFD01F06DFD124B75
:400100001A684FF47A7303FB02F2104BA3FB023292090121002001F087F80D4B1B78002BEDD00C4BD3E9002312F1FF3202EB42018B000949C85C094B1A44107001F026FCEE
:400140000022034B1A70DAE7CC80FF1FD34D6210940200208802002008030020A8020020014B1868704700BF7481FF1F00B583B0064B01930023009301238022044905483B
:4001800000F012FD03B05DF804FB00BF7481FF1F1C250000E900000008B5012001F054FB012001F045FB012001F05AFB022001F033FB012000F0B8FEFBE700BF00B585B0D3
:4001C000002204AB43F8042D01930092012380220349044800F0E8FC05B05DF804FB00BF342500009901000030B597B001F006FE01F0B4FD01F0C0FD0023ADF85630ADF84B
:400200005430ADF8123001F0BFFD80B2ADF85400BDF8540000B201F0C3FDBDF8540000B201F0BEFD80B2ADF85600BDF85630ADF8123001F0A9FD80B2ADF85400BDF854008E
:4002400000B201F0ADFDBDF8540000B201F0A8FD80B2ADF85600BDF81240BDF8560080B2201A01F0A3FE154901F0F4FE0546204601F09CFE294601F0E3FD02F03BF816A902
:4002800021F8460D00220023CDE902230023019300930523042205A800F03AF800F064F80028C6D000F060F800234FF0FF3205A900F084FA0A2000F037FEBAE7CDCC4C3D38
:4002C00000B585B0002204AB43F8042D01930092012380220349044800F066FC05B05DF804FB00BF48250000E901000008B5064B18780022402100F039FA044B18600120B6
:4003000000F012FEFBE700BFD080FF1FE802002008B338B5044609B31D460E3002F036F8DDE90623134304D102F044F8C3176060A3600C4A32F8043B2380138863809DF8DB
:40034000103084F83E309DF8143084F83F3025736068A16838BD0020014670470020014638BD00BF60250000014B1868704700BFE802002000B585B0002204AB43F8042D00
:4003800001930092012380220349044800F00CFC05B05DF804FB00BF68250000ED02000082B0002301934FF0A00383F31188BFF36F8FBFF34F8F019B002BFCD002B0704767
:4003C00006480068006880F3088862B661B6BFF34F8FBFF36F8F00DF00BF000008ED00E04FF0807340F8043C21F0010140F8081C034B40F80C3C40F8202C4038704700BFA1
:40040000A1030000000000000000000000000000074B19680868B0E8F00F80F30988BFF36F8F4FF0000080F311884EF00D0E70475082FF1F4FF0A00383F31188BFF36F8F9E
:40044000BFF34F8F024A136801331360704700BFD480FF1F034A1368013B13600BB983F311887047D480FF1F0000000000000000EFF30980BFF36F8F0D4B1A6820E9F00F26
:4004800010602DE908404FF0A00080F3118800F065FD4FF0000080F31188BDE8084019680868B0E8F00F80F30988BFF36F8F70475082FF1F08B54FF0A00383F31188BFF3B6
:4004C0006F8FBFF34F8F00F0E5FB18B14FF08052024B1A60002383F3118808BD04ED00E0054B00221A6005490A600549054A116007221A60704700BF10E000E018E000E0C2
:400500000834010014E000E010B50B4B1A6842F47F021A601A6842F07F421A60FFF7E0FF0024064B1C60FFF74BFF00F017FDFFF737FF204610BD00BF20ED00E0D480FF1F66
:4005400000F1080343604FF0FF328260C360036100230360704700BF00230361704700BF30B40D68B5F1FF3F01D1026907E000F1080200E01A4653681C68A542FAD25368C1
:400580004B6099608A605160086103680133036030BC704703694268816891608268416851605A68904201D182685A60002202611A68013A1A601868704700BF10B50446EF
:4005C000FFF738FFA26BE36B9A4201D1012400E00024FFF73FFF204610BD00BF70B504461646856B026C3AB9036843BB806800F0CBFD0023A36029E06EB9406801F0C6FE9E
:400600006268236C13446360A268934219D32368636000201AE0C06801F0B8FE236C5B42E2681A44E26021688A4202D2A2681344E360022E07D145B1013D002006E0002000
:4006400004E0002002E0002000E000200135A56370BD00BF38B50546FFF7ECFE95F8454064B20AE06B6A53B105F1240000F0D8FC08B100F081FD013C64B2002CF2DCFF23D3
:4006800085F84530FFF7E6FEFFF7D4FE95F8444064B20AE02B6953B105F1100000F0C0FC08B100F069FD013C64B2002CF2DCFF2385F84430FFF7CEFE38BD00BF00283ED030
:4006C00038B50346C26B002A3BD04FF0FF30B0FBF2F2186C824236D31C460D46FFF7AAFE2168E26B236C03FB0210A0600020A0636160013A02FB0313E360FF2384F84430C5
:4007000084F845307DB92369ABB104F1100000F087FC80B14FF080520C4B1A60BFF34F8FBFF36F8F07E004F11000FFF709FF04F12400FFF705FFFFF78DFE012038BD00202B
:400740007047002038BD002038BD00BF04ED00E010B5029B0C4609B91B6000E01A60D8631C6401211846FFF7A9FF10BDF0B583B0D8B104464FF0FF30B0FBF4F0884216D3BC
:4007800001FB04F010F1490F13D817460D46483000F016FE064668B100903B4600F1480229462046FFF7D4FF04E0002602E0002600E00026304603B0F0BD00BFF0B585B003
:4007C00004460F4601921E460025FFF733FEA26BE36B9A4201D3022E21D1324639462046FFF7FCFE636A6BB104F1240000F018FC88B14FF08052324B1A60BFF34F8FBFF314
:400800006F8F08E038B14FF080522D4B1A60BFF34F8FBFF36F8FFFF71DFE01204EE0019B1BB9FFF717FE002048E01DB902A800F06BFC0125FFF70EFE00F01CFAFFF7FAFD91
:4008400094F844305BB2B3F1FF3F02D1002384F8443094F845305BB2B3F1FF3F02D1002384F84530FFF7F6FD01A902A800F056FCF0B92046FFF7A2FEA0B1019904F11000B8
:4008800000F0BEFB2046FFF7E5FE00F0ABFA00289BD14FF080520A4B1A60BFF34F8FBFF36F8F92E72046FFF7D5FE00F09BFA8CE72046FFF7CFFE00F095FA002005B0F0BD3D
:4008C00004ED00E0074B9B6A1B6823B94FF0FF32044BDA627047034B9A6AD2681268DA62704700BF7881FF1F10B50446006B00F09FFD204600F09CFD10BD00BF2DE9F04722
:4009000081460D4617469A46089EDDF824800A9C9200A521206B01F044FD236B07F18042013A03EB820727F0070745B90DE0E95CE21882F83410EA5C22B1013300E000232F
:400940000B2BF4D9002384F83F30042E00D90426E6622664201DFFF7FFFD04F11800FFF7FBFD2461C6F10506A6616462524649463846FFF735FD2060B8F1000F01D0C8F88B
:400980000040BDE8F08700BF70B5002407E004EB8402930010481844FFF7D2FD0134042CF5D90E4C04F194063046FFF7C9FD04F1A8052846FFF7C4FD04F11400FFF7C0FD9A
:4009C00004F1BC00FFF7BCFD2046FFF7B9FDA662C4F8D05070BD00BFA881FF1F7881FF1F70B50546FFF726FD304BD3F8D4200132C3F8D420D3F8D8304BB92C4BC3F8D85081
:400A0000D3F8D430012B10D1FFF7BEFF0DE0274BD3F8DC304BB9254BD3F8D830DA6AEB6A9A4202D8214BC3F8D850204CD4F8E0300133C4F8E030EB6A012202FA03F1D4F890
:400A4000E4200A43C4F8E42003EB83039A002244536BAB609A68EA6099682A1D4A609A60EB6A04F130069800C1188A0032446A61C1188A002244116B013103449A00224476
:400A80001163FFF7E7FCD4F8DC306BB1D4F8D830DA6AEB6A9A4207D24FF08052044B1A60BFF34F8FBFF36F8F70BD00BF7881FF1F04ED00E038B517E0FFF7BCFC0D4CD4F82E
:400AC000C830DD68281DFFF765FDD4F8D430013BC4F8D430D4F8E830013BC4F8E830FFF7B9FC2846FFF700FF024BD3F8E830002BE2D138BD7881FF1F08B5FFF7DBFFFCE7C4
:400B000070B504460E46274BD3F8EC50D3F8D8000430FFF73FFD60B9224BD3F8D820D16A012202FA01F1D3F8E42022EA0102C3F8E420B4F1FF3F19D1C6B11A4B5A68D3F808
:400B4000D8108A60D3F8D8109068C8609068D3F8D81004314160D3F8D81004319160D3F8D82053611A6801321A6070BD2C440D4BD3F8D8305C60A54208D90A4BD3F8D00094
:400B8000D3F8D8100431FFF7EBFC70BD054DA86AD5F8D8100431FFF7E3FCEB6A9C4200D2EC6270BD7881FF1F2DE9F04385B006460F4615469846900000F002FC80B18146BB
:400BC000502000F0FDFB044630B15022002101F0E8FBC4F8309004E0484600F029FC00E000248CB10023039302940D9B01930C9B009343462A4639463046FFF77FFE20463B
:400C0000FFF7EEFE012001E04FF0FF3005B0BDE8F08300BF00B583B0114B019300230093642210491048FFF7BFFF012813D14FF0A00383F31188BFF36F8FBFF34F8F0B4BC9
:400C40004FF0FF32DA620122C3F8DC200022C3F8EC20FFF759FC064B1B6803B05DF804FB7082FF1F78250000F90A00007881FF1FD880FF1F034AD2F8F0300133C2F8F0305D
:400C8000704700BF7881FF1F014BD3F8EC0070477881FF1FF8B5524BD3F8F030002B40F094804F4BD3F8EC500135C3F8EC5065B99A6AD3F8D0109962C3F8D020D3F8FC200A
:400CC0000132C3F8FC20FFF7FDFD454BDB6A9D4203D2002068E0012000E00020404B9B6A1B6823B94FF0FF323D4BDA625CE03C4B9B6ADB68DB685A68954202D2384BDA624B
:400D000052E05A699968DC688C60D9689C684C6051681E1DB14201D1D9685160002159611168013911609A6A8AB1D9691C6A8C60196ADC694C60546803F118018C4201D122
:400D4000196A516000219962116801391160D96A012404FA01F7224AD2F8E4403C43C2F8E44001EB81018C001444616B99608C68DC608C6866608E60D96A02F1300E8F00F8
:400D80007E18B40074445C617E18B4001444266B013639448C0014442663D96AD2F8D830DB6A994297D899E70D49D1F8D830DB6A03EB83039A000A44136B012B00D9012090
:400DC000074BD3F8F43043B9F8BD054AD2F800310133C2F800310020F8BD0120F8BD00BF7881FF1F70B5FFF725FB4D4BD3F8F020013AC3F8F020D3F8F030002B40F0888015
:400E0000474BD3F8D430002B5BD1002483E0444B1B6ADB689A6AD969186A8860196AD8694860506803F11801884201D1196A5160002199621168013911605A699968D86827
:400E40008860D9689868486051681C1DA14201D1D968516000215961116801391160D96A012000FA01F52E4AD2F8E4002843C2F8E40001EB810188001044416B99608868A7
:400E8000D860886844608C60D96A02F130068D006C18A000304458616C18A0001044046B01342944880010440463D96AD2F8D820D26A914206D90121A6F13002C2F8F410C8
:400EC00000E00023164A5269002AA0D10BB1FFF7F9FC134BD3F8004164B1FFF7DBFE18B101220F4BC3F8F420013CF6D100220C4BC3F800210A4BD3F8F4305BB14FF0805275
:400F0000084B1A60BFF34F8FBFF36F8F012402E0002400E00024FFF79DFA204670BD00BF7881FF1F04ED00E010B548B10446FFF7A1FE00212046FFF7E3FDFFF753FF00E08C
:400F4000002038B94FF08052034B1A60BFF34F8FBFF36F8F10BD00BF04ED00E0274BD3F8F03023B10122254BC3F8F420704710B5224B0022C3F8F420D3F8D8301B6B1A68A2
:400F8000B2F1A53F0BD15A68B2F1A53F07D19A68B2F1A53F03D1DB68B3F1A53F07D0174BD3F8D800D3F8D8103431FFF793F8134AD2F8E430B3FA83F3DBB2C3F11F039800B7
:400FC000C418A10011444C6B64684C6302F1300118448200104608320A44944204D1024606490A44D16B5163044903EB83039A000A44536BDB68C1F8D83010BD7881FF1F3E
:4010000010B50C46054BD3F8D8101831FFF7A8FA01212046FFF774FD10BD00BF7881FF1F70B4C368DB689A6AD969186A8860196AD8694860516803F11800814201D1196A98
:401040005160002199621168013911602D4AD2F8F020002A38D15A699968D8688860D9689868486051681C1DA14201D1D968516000215961116801391160DA6A012000FA2F
:4010800002F52049D1F8E4002843C1F8E40002EB820290000844426B9A609068D860906844609460DA6A01F130069500AC18A00030445861AC18A0000844046B01342A4413
:4010C000900001440C630DE00E4A9169D9618C681C628C686060886002F114019962516901315161DA6A074BD3F8D830DB6A9A4204D90120034BC3F8F40000E0002070BCD3
:40110000704700BF7881FF1F034BD3F8FC200260D3F8EC30436070477881FF1FF8B504460D46FFF787F9134BD3F8EC106268881A2B68B3F1FF3F18D027680E4ED6F8FC6070
:40114000B74205D0914203D300232B6001240DE0984206D21B1A2B602046FFF7D5FF002404E000232B60012400E00024FFF772F92046F8BD7881FF1F0122024BC3F8F420E5
:40118000704700BF7881FF1F002844D0F8B50346426C013A4264C06A196C88423DD0002A3DD11C461D1D2846FFF7F4F950B9E26A012303FA02F21B49D1F8E43023EA020379
:4011C000C1F8E430236CE362C3F10502A261012000FA03F6134AD2F8E4103143C2F8E41003EB8303990011444B6BA3609968E16099684D609D60E36A02F130079D00EE181D
:40120000B1000E4639446161314611440C6B044432441463F8BD002070470020F8BD0020F8BD00BF7881FF1F70B504460E461546FFF700F9224BD3F8D83004F1120253F845
:4012400022309BB91E4BD3F8D8302344012283F84C205DB111462846FFF752FC4FF08052184B1A60BFF34F8FBFF36F8FFFF7F2F8FFF7E0F8124BD3F8D83004F1120253F8A4
:4012800022508DB146B10E4BD3F8D82004F11203002142F8231007E0094BD3F8D8206B1E04F1120142F82130054BD3F8D8301C44002384F84C30FFF7CDF8284670BD00BF06
:4012C0007881FF1F04ED00E0F0B5EFF311854FF0A00383F31188BFF36F8FBFF34F8F441894F84C30DBB2022684F84C60123150F82140013440F82140012B5BD12F4BD3F820
:40130000F030002B38D143698168C4688C60C16884684C605968061DB14201D1C168596000214161196801391960C36A012404FA03F72249D1F8E4403C43C1F8E44003EB7D
:4013400083039C000C44636B83609C68C4609C6866609E60C36A01F1300E9F00FE18B40074444461FE18B4000C44266B01363B449C0021440E630FE0104B9969C1618C6802
:4013800004628E6800F1180474608C6003F114018162596901315961C16A084BD3F8D830DB6A994206D90AB1012313600122034BC3F8F42085F31188F0BD00BF7881FF1FF4
:4013C00038B5044610F0070F07D020F007030833984201D3002400E01C46FFF74BFC124B1B682BB9104A02F10B0323F00703136084B10E4BD3F83C391C4447F6F7729442CA
:401400000AD8A3420AD2084A15681D44074BC3F83C4904E0002502E0002500E00025FFF7E1FC284638BD00BF7C82FF1F44F9FF1F704700BFFEE700BFF0B40022174611E098
:4014400050F82760F3B226F0FF0608E001EB420511F812406D78A5550132013BDBB2002BF4D10137192FEBD9F0BC704708B50A46002100F096FF08BDF8B5164B1B78DBB24F
:40148000154E3478E4B2154F3D78EDB203F00701134A11701B090132137044F00303337045F003033B7004220E4B1A70802203F20C731A70402203F21F231A702022033315
:4014C0001A700A2000F0F0F93D7034704422064B1A70F8BDCF010049F8460040F94600406E580040FD5100407658004008B500F04DFF08BD38B50122314B1A801925023309
:401500001D70042202331A8002331D704FF40071023319801821023319702A492A48FFF7E5FF0622294B1A705222A3F580731A70274B1B78DBB2274A137040F62E52264BD3
:401540001A8042F25122023B1A8000240CE0234B1B7803F0010343EA440404F003044FF4F07000F059FC013D0DB1032CEFD115B90320FFF75FFF1A4A4FF48073138007236C
:401580001370002317490B704820023108701370053213700222144B1A7004220A331A70124A137843F007031370013A137843F001031370013A137843F08003137038BD45
:4015C000804000402C06004800410040004300400F010049A14600402242004025420040044000400640004001400040A243004038B572B66122374B1A70FFF77BFF364A5E
:40160000137843F00403137000240CE0334D630019194A0011462A44084691882858FFF725FF0134E4B2072CF0D900240BE02B49A3001819420088188022416B006BFFF77E
:4016400055FF0134E4B2002CF1D025494FF09040FFF7F2FE234A244B1A60244A137843F0020313701032137843F002031370204C237843F040032370A2F58632513A1378F4
:4016800043F0100313700A221A491B48FFF72EFF0A221A491A48FFF729FF082219491A48FFF724FF082219491948FFF71FFF082218491948FFF71AFF184A137843F008030F
:4016C0001370FFF7D9FE0E2221461548FFF70EFF38BD00BF00480040E84600408025000068000048040004C4D804014003500140A0430040FC0500480051004008060048D4
:40170000F051004014060048125100401C06004822510040240600483251004022430040B043004008B500F005FE03680C2B00D1FEE7FEE708B5094B1A681044084BC31AF5
:40174000802B02DC054B186005E000F0F3FD0C2303604FF0FF32104608BD00BFDC80FF1F1806002008B5104E104D16E029686B68AC68002204E051F8040B43F8040B0432FB
:40178000A242F8D1E868002203E0002143F8041B04328242F9D11035013E002EE6D100F0CFFDFEF789FCFEE701000000E025000008B5104A104B1A60104A136843F40073F3
:4017C000136000230AE0032B03D80D4A52F8231000E00C490C4A42F8231001332F2BF2D90A4B1A780A4B1A70074A0A4B1A60FFF7FFFE08BD0004FA050CED00E014ED00E0E0
:4018000000000000251700000080FF1FBC760040C080FF1F08ED00E0044A137803F0F10300F00E0018431070704700BF13500040044A137803F0DF03400100F0200018431D
:401840001070704730510040044A137803F0FE0300F0010018431070704700BFF0510040044A137803F0FE0300F0010018431070704700BF0051004001BE704710B50446BB
:4018800005E0084B186800F0C7FAA4F50044B4F5004FF6D8034B586800FB04F000F0BCFA10BD00BFE080FF1F08B5034B1B7A00FB03F000F0B1FA08BDE080FF1F70B5044694
:4018C0000E46074B1D681F2802D90020FFF7D4FF04F01F04103455F8240045F8246070BD08ED00E038B504460D46072902D90020FFF7C2FF1F2C02D90020FFF7BDFF04F0CB
:401900001F0000F1604000F564406D01EDB2057038BD00BF7622074B1A702022023B1A700E225F3B1A708F2210331A7000224D331A7070478664004010B500F075FA04465E
:401940000A4A137843F020031370023A137843F010031370023A137843F01003137000F01FF8204600F064FA10BD00BF9664004008B5054B1B7823B9FFF7CCFF0122024B61
:401980001A70FFF7D9FF08BD84020020024B1B780BB1024B187070478402002042640040054A137843F0040313701032137843F004031370704700BFA243004010B582B0FD
:4019C00000F0B6F8314B1B78DBB28DF807309DF8073013F0200F0DD1402200212C4800F0E0FC2C4C00220023C4E90023FFF74CF9A06049E0FFF748F9274A9060254B9B6856
:401A00005360C01A0021254BC3E90001244B1A680023994208BF904209D3002000211D4BC3E9000140220021194800F0BAFC1D4B1B7819490B70174C226802EB420293000E
:401A4000134A134407C983E80700FFF71DF9A060D4E90023013243F10003C4E90023002B08BFB2F5407F03D300200021C4E9000100230093FEF774FB30B10121054A11733D
:401A80006A460021FFF720FC02B010BD646400400803002088020020F8020020F0020020CC80FF1F43640040014B1B681864704708ED00E04001C0B2014B1870704700BF96
:401AC00000E400E00122014B1A60704700E100E00122014B1A60704780E100E008B5FFF7F7FF0448FFF7E0FF0020FFF7E3FFFFF7E9FF08BDBD190000054A137843F0020393
:401B000013701032137843F002031370704700BFA2430040024A137843F080031370704775640040014B1870704700BF85640040014B1878704700BF65640040014B18806D
:401B4000704700BF0C680040014B188880B270478C680040014B1880704700BF4C680040014B1880704700BF6C68004008B501E0FFF7EAFFFFF7DCFF10F0400FF8D108BD4B
:401B800008B5134A137803F0F80343F001031370137803F0FC031370FFF7E8FF4FF41650FFF7D8FF4FF41650FFF7C8FF0C20FFF7B9FFFFF7BDFF0920FFF7D2FF00F034F986
:401BC000044A137843F01003137000F031F908BD756400409564004008B5054B1B7823B9FFF7CEFF0122024B1A70FFF793FF08BD9C020020054A137843F0010313701032F8
:401C0000137843F001031370704700BFA243004008B50A280FD00C2802D0082806D102E04FF4805209E04FF4807206E00020FFF723FE002201E04FF480620021084B198082
:401C400042F2107303FB02F313F5806301D503F2FF73DB12034A13600022034B1A8008BD100600200C0600200A06002010B500F0DBF80446194A137843F0020313701032C1
:401C8000137843F00203137002F5AA521032137843F0030313701822114B1A70013B1A7842F040021A701A7802F0FC021A70C822053B1A700222A3F59753123B1A70094AE6
:401CC000137843F0080313700A20FFF7EDFD0422054B1A60204600F0ABF810BDAB4300400E5900402F5B004080E200E010B504460A280DD00C2802D0082804D101E0C22209
:401D000007E0422205E00020FFF7B6FDC22200E08222034B1A702046FFF77AFF10BD00BF0A59004008B507210220FFF7DBFD08490220FFF7C3FD074A137843F006031370CD
:401D40000C20FFF7D3FF0022034B1A8008BD00BFF91D0000095900400806002008B5054B1B7823B9FFF7DEFF0122024B1A70FFF77DFF08BD9D020020024A137843F00103AE
:401D80001370704708590040034B188880B2034B1B88C01A00B27047A25B00400A06002010B4124B1B881BB233B1104B1B881BB203EB83035C0001E00D4B1C680D4B1988C1
:401DC000411A09B242F2107303FB01F2002903DD04EBD470401003E004EBD47040104042831893FBF4F000B210BC7047100600200C06002008060020704700BF054A137889
:401E000043F0010313701032137843F001031370704700BFA14300400230800803D000BF01380046FCD17047EFF3108072B6704780F31088704700BF80F0004002E000BF55
:401E400081F0004142001FBF5FEA410392EA030F7FEA226C7FEA236C6AD04FEA1262D2EB1363C1BFD218414048404140B8BF5B42192B88BF704710F0004F40F4000020F08F
:401E80007F4018BF404211F0004F41F4000121F07F4118BF494292EA030F3FD0A2F1010241FA03FC10EB0C00C3F1200301FA03F100F0004302D5494260EB4000B0F5000F43
:401EC00013D3B0F1807F06D340084FEA310102F10102FE2A51D2B1F1004F40EBC25008BF20F0010040EA03007047490040EB000010F4000FA2F10102EDD1B0FA80FCACF107
:401F0000080CB2EB0C0200FA0CF0AABF00EBC25052421843BCBFD0401843704792F0000F81F4000106BF80F400000132013BB5E74FEA41037FEA226C18BF7FEA236C21D07B
:401F400092EA030F04D092F0000F08BF0846704790EA010F1CBF0020704712F07F4F04D1400028BF40F00040704712F100723CBF00F50000704700F0004343F0FE4040F47F
:401F8000000070477FEA226216BF08467FEA23630146420206BF5FEA412390EA010F40F4800070474FF0000304E000BF10F0004348BF40425FEA000C08BF704743F09643E9
:401FC00001464FF000001CE050EA010208BF70474FF000030AE000BF50EA010208BF704711F0004302D5404261EB41015FEA010C02BF84460146002043F0B64308BFA3F104
:402000008053A3F50003BCFA8CF2083AA3EBC25310DB01FA02FC634400FA02FCC2F12002BCF1004F20FA02F243EB020008BF20F00100704702F1200201FA02FCC2F1200215
:4020400050EA4C0021FA02F243EB020008BF20EADC7070474FF0FF0C1CEAD0521EBF1CEAD15392EA0C0F93EA0C0F6FD01A4480EA010C400218BF5FEA41211ED04FF00063B7
:4020800043EA501043EA5111A0FB01310CF00040B1F5000F3EBF490041EAD3715B0040EA010062F17F02FD2A1DD8B3F1004F40EBC25008BF20F00100704790F0000F0CF0D1
:4020C000004C08BF49024CEA502040EA51207F3AC2BFD2F1FF0340EAC250704740F400004FF00003013A5DDC12F1190FDCBF00F000407047C2F10002410021FA02F1C2F101
:40210000200200FA02FC5FEA310040F1000053EA4C0308BF20EADC70704792F0000F00F0004C02BF400010F4000F013AF9D040EA0C0093F0000F01F0004C02BF490011F481
:40214000000F013BF9D041EA0C018FE70CEAD15392EA0C0F18BF93EA0C0F0AD030F0004C18BF31F0004CD8D180EA010000F00040704790F0000F17BF90F0004F084691F0F5
:40218000000F91F0004F14D092EA0C0F01D142020FD193EA0C0F03D14B0218BF084608D180EA010000F0004040F0FE4040F40000704740F0FE4040F4400070474FF0FF0C41
:4021C0001CEAD0521EBF1CEAD15392EA0C0F93EA0C0F69D0A2EB030280EA010C49024FEA402037D04FF0805343EA111143EA10130CF000408B4238BF5B0042F17D024FF453
:40220000000C8B4224BF5B1A40EA0C00B3EB510F24BFA3EB510340EA5C00B3EB910F24BFA3EB910340EA9C00B3EBD10F24BFA3EBD10340EADC001B0118BF5FEA1C1CE0D1F7
:40224000FD2A3FF650AF8B4240EBC25008BF20F0010070470CF0004C4CEA50207F32C2BFD2F1FF0340EAC250704740F400004FF00003013A37E792F0000F00F0004C02BF35
:40228000400010F4000F013AF9D040EA0C0093F0000F01F0004C02BF490011F4000F013BF9D041EA0C0195E70CEAD15392EA0C0F08D142027FF47DAF93EA0C0F7FF470AF54
:4022C000084676E793EA0C0F04D14B023FF44CAF08466EE730F0004C18BF31F0004CCAD130F000427FF45CAF31F000437FF43CAF5FE700BF42000ED2B2F1FE4F0BD34FF087
:402300009E03B3EB126209D44FEA002343F0004323FA02F070474FF00000704712F1610F01D1420202D14FF0FF3070474FF00000704700BF014B1868704700BF5081FF1F18
:402340000E4B70B51E460E4C0025E41AA410A54204D056F8253098470135F8E700F02EF9084B094C1E46E41AA4100025A54204D056F8253098470135F8E770BDC825000092
:40238000C8250000C8250000D025000010B5431E0A44914204D011F8014B03F8014FF8E710BD03460244934202D003F8011BFAE770470000194B10B51C68A36BD3B9182083
:4023C00000F032F843F20E33A06303804AF6CD33438041F2342383804EF26D63C3804DF6EC630381052343810B23838101220023C0E90423A16B0A4C0B6948695C43094A21
:4024000002FB0040A3FB02230132034443F10003C1E9042323F0004010BD00BF5081FF1F2DF451582D7F954C024B0146186800F003B800BF5081FF1F70B5CD1C25F003055D
:4024400008350C2D38BF0C25002D064601DBA94202D90C23336046E000F05CF8234B1C681A462146A1B10B685B1B0ED40B2B03D90B60CC18CD501EE08C420BBF63684B680F
:402480001360636018BF0C4615E00C464968E9E7174C23681BB9304600F02CF820602946304600F027F8431C18D0C41C24F00304A0420DD12560304600F02DF804F10B0023
:4024C000231D20F00700C31A0ED05A42E25070BD211A304600F00EF80130EBD10C233360304600F018F8002070BD00BFA4020020A002002038B5064C0023054608462360F1
:40250000FFF718F9431C02D1236803B12B6038BD1406002070477047000000007461736B55736572436F646547656E657261746F7200000055736572427574746F6E436FBA
:402540006E74726F6C00000056656869636C6542617474657279566F6C746167650000000F0A00000C0E000053797374656D4D657373656E6765720049444C450000000040
:40258000405100403000C0510040100000000140800600070140000900140140000800400140000A004C01400002005001402000800601407C05004880004300F8B500BFBA
:4025C000F8BC08BC9E4670474D000000B1170000F8B500BFF8BC08BC9E46704729000000F0250000C880FF1F90000000C0840000000000000500000014000000AAAAAAAAFB
:4026000004000000180600200000059A0A3401004F000000B643B3040000000000000000000000000000000000000000000000000000000000000000BA250000000000009C
:402640000000000000000000000000000000000000000000000000000000000000000000000000000000000000000000000000000000000000000000F080FF1F00000000CC
:40268000000000000000000000000000000000000000000000000000000000000000000000000000000000000000000000000000000000000000000000000000000000001A
:4026C00000000000000000000000000000000000000000000000000000000000000000000000000000000000000000000000000000000000000000000000000000000000DA
:402700000000000000000000000000000000000000000000000000000000000000000000000000000000000000000000000000000000000000000000000000000000000099
:402740000000000000000000000000000000000000000000000000000000000000000000000000000000000000000000000000000000000000000000000000000000000059
:020000040003F7
:0200000480007A
:40000000014500400252004004640040520001402D01014065020140490301405C0401404C0501402C0601404A070140011501400217014001190140011B014004400140A1
:400040000B4101400342014003430140024701400548014002490140074C0140074D014006500140015101407E0201047C40820F8438856B8676010803870520061F07870A
:400080000B110E160F171206131514041511161A17861A1E1E1D1F112206254026042787280429112A1A2B062E062F17301431033202337834013580360C37053AA23BAEAE
:4000C0003E04580459045C115F018310859C8760881C89708A238B848C218DF08E0E8F08911093029520961C99FC9A08A38CA440A603A760A821A940AA16AD01B102B2606B
:40010000B3E0B40FB501B61AB77CB808BAA0BB80BF10D804D904DC22DF0101800320055008240A680B010E100F081108129A150417201848198A1A481D501E18229A2541DE
:400140002719280429802B202D202E842F40328A340235043620384A3A103B013C243D82400441107E027F01C0C5C26FC46FCAFECCEBCEFF00800113020303040715085C1F
:4001800009030A020B140C6C0E111409150A16101714181019131B0C2520262028702A0C2B082C142F20301F31103260330F3680372038083B283E443F414023410446CE7C
:4001C00047B0482C49FF4AFF4BFF4EF04F44500C5401580459045A045B045C225D225F0166C06A406B0286048E0192029A029D019E08A101A604AA08B004B203B301B408C3
:40020000B908BE15BF04C045C102C206C403C50CC70EC811C9FFCAFFCBFFCC62CDA0CEF0CF41D00CD804D904DA04DD02DF01E640E702E910EA30EB10ED10EE10EF120088FA
:4002400003100551060208020A080B010E100F08102815051691172018041B091C021D092104244025202620272628802E102F123040360437203D163E023F2041224308D3
:4002800045014610472048244B805008568157105C405D115F0884018516923093029402952496049780982099DA9B199C029D249E809F20A28CA410A504A620A724C0D5BA
:4002C000C26BC4E6CA71CC68CEE0D0E7D20CD6F0010C020E03F3050F061007F009F30A0E0B0C0D330E0E10031204140A1511160418041A0A1B0C1DFF1E0E220E23732401D3
:400300002504263C280E29082C042D222E0A31303218334C3420350F3607378039803AA83B2854185604580459045B045C215D205F0180028404860888018C048E08940449
:40034000960898069A089C0CA001A401A801B201B403B60CB820BE04C003C704C9FFCA0FCBFFCC40CD20CEF0CF05D008D280D40BD604D804DA04DB04DC02DD02DE80DF0543
:40038000E040E1A8E240E320019A06890714082009010A200B020C880E041002128813081529170118201A011B201C081D101E241FC02020211422012301280229242B8020
:4003C0003110324439293B403D023E0145084D0457045A025E805F12608463026440661477407C028510873290049220930294029524960C97A19820998A9B079CC29D24BD
:40040000A108A288A301A450A504A726C0FFC2EFC47FCA0FCC0ECE0FD040D6B1D8EDDE8002020303100219011E06200122082E0130043202330234083601370138803E4488
:400440003F40403149FF4AFF4BFF4DA04F01501856025711580459045A045B045D205F016040628064406540668068406A506BA86C406D206E506FA80088032007400802C9
:400480000A080E4110A81180120114021502180219101B401D881E401F1020802104220423402640272028022A012B20308831103720382039083B403F01418845884B0161
:4004C00051015214530258405E2060026CB86D806F1075247680834892019402960897609B409C029D249E959F18A004A210A4C8A640A702A812A904AA48C015C29AC49F6D
:40050000CA0BCC2ECE8ED05AD628D808EE02AC40EE02EE02EE02312033083640CC700508584084408520A520A640A708C020D480E210E6109908A640A7089908A640A708AE
:400540000B40C208A708AD08AE40EC10EE40AF08EE4008101F105010AF40C202C601D4041820781094209810AF10C608DE0200070101021408060A070B01003B00000000FE
:400580000355FC2A0073000C2500DA40920025000073000C48002580004F00301F30E00CE3431C3CE3001C00E02A1C1500C0003FFF000000800000000000100031000000AB
:4005C0000050C02E3AFFFFFF00AF0701180000000000080004040404219000014000800040408000400050A8402050A8000000000000000000000000000000000400020493
:4006000005000400000100004000000001000000C4000000400F0F0004000000000038000000000000002000000000003C001801000000000000000000000000000000009C
:40064000000000000000000000000000000000000000000000000000000000000000000000000000000000000000000000000000000000000000000000000000000000007A
:40068000000000000000000000000000000000000000000000000000000000000000000000000000000000000000000000000000000000000000000000000000000000003A
:4006C00000000000000000000000000000000000000000000000000000000000000000000000000000000000000000000000000000000000000000000000000000000000FA
:4007000000000000000000000000000000000000000000000000000000000000000000000000000000000000000000000000000000000000000000000000000000000000B9
:0200000490006A
:0400000000004005B7
:0200000490105A
:04000000BC90ACAF55
:0200000490303A
:02000000F45FAB
:0200000490402A
:4000000000000000000000000000000000000000000000000000000000000000000000000000000000000000000000000000000000000000000000000000000000000000C0
:400040000000000000000000000000000000000000000000000000000000000000000000000000000000000000000000000000000000000000000000000000000000000080
:400080000000000000000000000000000000000000000000000000000000000000000000000000000000000000000000000000000000000000000000000000000000000040
:4000C0000000000000000000000000000000000000000000000000000000000000000000000000000000000000000000000000000000000000000000000000000000000000
:0200000490501A
:0C00000000012E16106900012E2704C814
:00000001FF