:4000000000800020110000005D1A00005D1A000008B5044B1A6803F53F5302331A6001F03DFD00BFFA46004010B5054C237833B9044B13B10448AFF300800123237010BD4E
:400040005881FF1F000000001C290000084B10B51BB108490848AFF300800848036803B910BD074B002BFBD0BDE81040184700BF000000005C81FF1F1C290000C880FF1F58
:4000800000000000034B044ADA62044A9A63044ADA6370470080FF1F0105000061050000A505000008B500F065F800F081F800F0FFF800F08FF900F0DBF908BD08B54FF4CC
:4000C000FA7001F077FD012002F044F862B6FFF7D9FFFFF7E7FF00F0B1FEFEE74FF0A00383F31188BFF36F8FBFF34F8FFEE700BF08B501F0DBFD01F08FFE01F09BFE01F048
:4001000017FF01F007FF124B1A684FF47A7303FB02F2104BA3FB023292090121002001F097F90D4B1B78002BEDD00C4BD3E9002312F1FF3202EB42018B000949C85C094B64
:400140001A44107001F0C0FD0022034B1A70DAE7CC80FF1FD34D6210A40200209802002060030020C0020020014B1868704700BF7481FF1F00B583B0064B0193002300937F
:40018000012380220449054800F022FE03B05DF804FB00BF7481FF1F20290000F100000008B5022001F0D4FC012000F0D1FFFBE700B583B0064A0023136001920093012341
:4001C00080220449044800F003FE03B05DF804FB7881FF1F38290000A1010000D0B598B001F0AAFF01F058FF01F064FF0023ADF85E30ADF85C3001F065FF80B2ADF85C00A0
:40020000BDF85C0000B201F069FFBDF85C0000B201F064FF80B2ADF85E00BDF85E0080B202F06CF8044601F04DFF80B2ADF85C00BDF85C0000B201F051FFBDF85C0000B23A
:4002400001F04CFF80B2ADF85E00BDF85E0080B202F058F80146204601F09EFF134902F0A5F80146204601F097FF044618A941F8480D0023049300260027CDE902670193D9
:4002800000930523042207A800F070F800F09CF80028C8D000F098F800234FF0FF3207A900F024FB0A2000F053FFBCE7CDCC4C3D00B583B0064A00231360019200930123F7
:4002C00080220449044800F083FD03B05DF804FB7C81FF1F4C290000DD01000010B582B01C4C20780022402100F0D8FA1A4B186020780022402100F0D1FA184B18600022F2
:400300000421607800F0CAFA154B1860154C4FF0FF322146104B186800F06CFB237B052B11D11149D4F80E300B6001230A220C48006800F0DBFA00F095F800210091022326
:400340000A4601F0D5F8FFF70FFF012000F000FFDCE700BFD080FF1F00030020BC020020B8020020080300200403002020B338B5044621B31D460E3002F00AFADDE90623DA
:40038000134304D102F018FAC3176060A3600D4A32F8043B2380138863809DF8103084F83E309DF8143084F83F3025739DF8203063736068A16838BD0020014670470020B6
:4003C000014638BD64290000014B1868704700BF0003002000B585B0002204AB43F8042D01930092012380220349044800F0F0FC05B05DF804FB00BF6C290000DD0200000C
:4004000000B583B0012001F0AFFB4FF0FF320121002001F01DF84FF0FF3201A90F4B186800F0E8FA0E49019802F05EF948B1012001F0B2FB012001F0A3FB012001F094FB58
:4004400008E0002001F0A8FB002001F099FB002001F08AFB012000F07BFED6E7B80200200000B943014B1868704700BF8081FF1F00B583B0064B01930023009301238022DE
:400480000449054800F0A4FC03B05DF804FB00BF8081FF1F7C2900000104000082B0002301934FF0A00383F31188BFF36F8FBFF34F8F019B002BFCD002B0704706480068B7
:4004C000006880F3088862B661B6BFF34F8FBFF36F8F00DF00BF000008ED00E04FF0807340F8043C21F0010140F8081C034B40F80C3C40F8202C4038704700BF9D040000B5
:40050000074B19680868B0E8F00F80F30988BFF36F8F4FF0000080F311884EF00D0E70475C82FF1F4FF0A00383F31188BFF36F8FBFF34F8F024A136801331360704700BFC1
:40054000D480FF1F034A1368013B13600BB983F311887047D480FF1F0000000000000000EFF30980BFF36F8F0D4B1A6820E9F00F10602DE908404FF0A00080F3118800F0F0
:4005800001FE4FF0000080F31188BDE8084019680868B0E8F00F80F30988BFF36F8F70475C82FF1F08B54FF0A00383F31188BFF36F8FBFF34F8F00F081FC18B14FF08052E0
:4005C000024B1A60002383F3118808BD04ED00E0054B00221A6005490A600549054A116007221A60704700BF10E000E018E000E00834010014E000E010B50B4B1A6842F415
:400600007F021A601A6842F07F421A60FFF7E0FF0024064B1C60FFF751FF00F0B3FDFFF73DFF204610BD00BF20ED00E0D480FF1F00F1080343604FF0FF328260C360036129
:4006400000230360704700BF00230361704700BF30B40D68B5F1FF3F01D1026907E000F1080200E01A4653681C68A542FAD253684B6099608A60516008610368013303608E
:4006800030BC704703694268816891608268416851605A68904201D182685A60002202611A68013A1A601868704700BF10B50446FFF738FFA26BE36B9A4201D1012400E05D
:4006C0000024FFF73FFF204610BD00BF10B50446FFF728FFA36B0BB9012400E00024FFF731FF204610BD00BF70B504461646856B026C3AB9036843BB806800F059FE00239A
:40070000A36029E06EB9406802F042F86268236C13446360A268934219D32368636000201AE0C06802F034F8236C5B42E2681A44E26021688A4202D2A2681344E360022EB3
:4007400007D145B1013D002006E0002004E0002002E0002000E000200135A56370BD00BF026C72B110B5C3681344C3608468A34201D30368C3600C46C168204602F008F816
:4007800010BD704738B50546FFF7CCFE95F8454064B20AE06B6A53B105F1240000F054FD08B100F0FDFD013C64B2002CF2DCFF2385F84530FFF7C6FEFFF7B4FE95F8444000
:4007C00064B20AE02B6953B105F1100000F03CFD08B100F0E5FD013C64B2002CF2DCFF2385F84430FFF7AEFE38BD00BF00283ED038B50346C26B002A3BD04FF0FF30B0FB0A
:40080000F2F2186C824236D31C460D46FFF78AFE2168E26B236C03FB0210A0600020A0636160013A02FB0313E360FF2384F8443084F845307DB92369ABB104F1100000F050
:4008400003FD80B14FF080520C4B1A60BFF34F8FBFF36F8F07E004F11000FFF7E9FE04F12400FFF7E5FEFFF76DFE012038BD00207047002038BD002038BD00BF04ED00E062
:4008800010B5029B0C4609B91B6000E01A60D8631C6401211846FFF7A9FF10BDF0B583B0D8B104464FF0FF30B0FBF4F0884216D301FB04F010F1490F13D817460D46483090
:4008C00000F024FF064668B100903B4600F1480229462046FFF7D4FF04E0002602E0002600E00026304603B0F0BD00BFF0B585B004460F4601921E460025FFF713FEA26B40
:40090000E36B9A4201D3022E21D1324639462046FFF7EAFE636A6BB104F1240000F094FC88B14FF08052324B1A60BFF34F8FBFF36F8F08E038B14FF080522D4B1A60BFF3D3
:400940004F8FBFF36F8FFFF7FDFD01204EE0019B1BB9FFF7F7FD002048E01DB902A800F0E7FC0125FFF7EEFD00F098FAFFF7DAFD94F844305BB2B3F1FF3F02D1002384F8FE
:40098000443094F845305BB2B3F1FF3F02D1002384F84530FFF7D6FD01A902A800F0D2FCF0B92046FFF782FEA0B1019904F1100000F03AFC2046FFF7E5FE00F027FB0028FD
:4009C0009BD14FF080520A4B1A60BFF34F8FBFF36F8F92E72046FFF7D5FE00F017FB8CE72046FFF7CFFE00F011FB002005B0F0BD04ED00E0F0B585B004460F4601920026A4
:400A0000FFF790FDA56BC5B139462046FFF7A8FE013DA563236963B104F1100000F014FC38B14FF08052304B1A60BFF34F8FBFF36F8FFFF787FD012053E0019B1BB9FFF7DE
:400A400081FD00204DE01EB902A800F071FC0126FFF778FD00F022FAFFF764FD94F844305BB2B3F1FF3F02D1002384F8443094F845305BB2B3F1FF3F02D1002384F845302C
:400A8000FFF760FD01A902A800F05CFCF0B92046FFF71CFEA0B1019904F1240000F0C4FB2046FFF76FFE00F0B1FA0028A8D14FF080520D4B1A60BFF34F8FBFF36F8F9FE7C7
:400AC0002046FFF75FFE00F0A1FA99E72046FFF759FE00F09BFA2046FFF7F8FD00288FD0002005B0F0BD00BF04ED00E0074B9B6A1B6823B94FF0FF32044BDA627047034B5A
:400B00009A6AD2681268DA62704700BF8481FF1F10B50446006B00F031FE204600F02EFE10BD00BF2DE9F04781460D4617469A46089EDDF824800A9C9200A521206B01F044
:400B400032FE236B07F18042013A03EB820727F0070745B90DE0E95CE21882F83410EA5C22B1013300E000230B2BF4D9002384F83F30042E00D90426E6622664201DFFF7A3
:400B800063FD04F11800FFF75FFD2461C6F10506A6616462524649463846FFF79FFC2060B8F1000F01D0C8F80040BDE8F08700BF70B5002407E004EB84029300104818445C
:400BC000FFF736FD0134042CF5D90E4C04F194063046FFF72DFD04F1A8052846FFF728FD04F11400FFF724FD04F1BC00FFF720FD2046FFF71DFDA662C4F8D05070BD00BFC5
:400C0000B481FF1F8481FF1F70B50546FFF78AFC304BD3F8D4200132C3F8D420D3F8D8304BB92C4BC3F8D850D3F8D430012B10D1FFF7BEFF0DE0274BD3F8DC304BB9254BCC
:400C4000D3F8D830DA6AEB6A9A4202D8214BC3F8D850204CD4F8E0300133C4F8E030EB6A012202FA03F1D4F8E4200A43C4F8E42003EB83039A002244536BAB609A68EA60ED
:400C800099682A1D4A609A60EB6A04F130069800C1188A0032446A61C1188A002244116B013103449A0022441163FFF74BFCD4F8DC306BB1D4F8D830DA6AEB6A9A4207D207
:400CC0004FF08052044B1A60BFF34F8FBFF36F8F70BD00BF8481FF1F04ED00E038B517E0FFF720FC0D4CD4F8C830DD68281DFFF7C9FCD4F8D430013BC4F8D430D4F8E830F2
:400D0000013BC4F8E830FFF71DFC2846FFF700FF024BD3F8E830002BE2D138BD8481FF1F08B5FFF7DBFFFCE770B504460E46274BD3F8EC50D3F8D8000430FFF7A3FC60B9DA
:400D4000224BD3F8D820D16A012202FA01F1D3F8E42022EA0102C3F8E420B4F1FF3F19D1C6B11A4B5A68D3F8D8108A60D3F8D8109068C8609068D3F8D81004314160D3F833
:400D8000D81004319160D3F8D82053611A6801321A6070BD2C440D4BD3F8D8305C60A54208D90A4BD3F8D000D3F8D8100431FFF74FFC70BD054DA86AD5F8D8100431FFF7A9
:400DC00047FCEB6A9C4200D2EC6270BD8481FF1F2DE9F04385B006460F4615469846900000F094FC80B18146502000F08FFC044630B15022002101F0D6FCC4F8309004E0E1
:400E0000484600F0BBFC00E000248CB10023039302940D9B01930C9B009343462A4639463046FFF77FFE2046FFF7EEFE012001E04FF0FF3005B0BDE8F08300BF00B583B0EA
:400E4000114B019300230093642210491048FFF7BFFF012813D14FF0A00383F31188BFF36F8FBFF34F8F0B4B4FF0FF32DA620122C3F8DC200022C3F8EC20FFF7BDFB064BDF
:400E80001B6803B05DF804FB7C82FF1F98290000210D00008481FF1FD880FF1F034AD2F8F0300133C2F8F030704700BF8481FF1F014BD3F8EC0070478481FF1FF8B5524BFF
:400EC000D3F8F030002B40F094804F4BD3F8EC500135C3F8EC5065B99A6AD3F8D0109962C3F8D020D3F8FC200132C3F8FC20FFF7FDFD454BDB6A9D4203D2002068E0012064
:400F000000E00020404B9B6A1B6823B94FF0FF323D4BDA625CE03C4B9B6ADB68DB685A68954202D2384BDA6252E05A699968DC688C60D9689C684C6051681E1DB14201D144
:400F4000D9685160002159611168013911609A6A8AB1D9691C6A8C60196ADC694C60546803F118018C4201D1196A516000219962116801391160D96A012404FA01F7224A72
:400F8000D2F8E4403C43C2F8E44001EB81018C001444616B99608C68DC608C6866608E60D96A02F1300E8F007E18B40074445C617E18B4001444266B013639448C0014446A
:400FC0002663D96AD2F8D830DB6A994297D899E70D49D1F8D830DB6A03EB83039A000A44136B012B00D90120074BD3F8F43043B9F8BD054AD2F800310133C2F8003100205D
:40100000F8BD0120F8BD00BF8481FF1F70B5FFF789FA4D4BD3F8F020013AC3F8F020D3F8F030002B40F08880474BD3F8D430002B5BD1002483E0444B1B6ADB689A6AD96902
:40104000186A8860196AD8694860506803F11801884201D1196A5160002199621168013911605A699968D8688860D9689868486051681C1DA14201D1D9685160002159617C
:40108000116801391160D96A012000FA01F52E4AD2F8E4002843C2F8E40001EB810188001044416B99608868D860886844608C60D96A02F130068D006C18A00030445861A8
:4010C0006C18A0001044046B01342944880010440463D96AD2F8D820D26A914206D90121A6F13002C2F8F41000E00023164A5269002AA0D10BB1FFF7F9FC134BD3F80041BE
:4011000064B1FFF7DBFE18B101220F4BC3F8F420013CF6D100220C4BC3F800210A4BD3F8F4305BB14FF08052084B1A60BFF34F8FBFF36F8F012402E0002400E00024FFF7CA
:4011400001FA204670BD00BF8481FF1F04ED00E010B548B10446FFF7A1FE00212046FFF7E3FDFFF753FF00E0002038B94FF08052034B1A60BFF34F8FBFF36F8F10BD00BF56
:4011800004ED00E0274BD3F8F03023B10122254BC3F8F420704710B5224B0022C3F8F420D3F8D8301B6B1A68B2F1A53F0BD15A68B2F1A53F07D19A68B2F1A53F03D1DB68F2
:4011C000B3F1A53F07D0174BD3F8D800D3F8D8103431FEF783FF134AD2F8E430B3FA83F3DBB2C3F11F039800C418A10011444C6B64684C6302F1300118448200104608320D
:401200000A44944204D1024606490A44D16B5163044903EB83039A000A44536BDB68C1F8D83010BD8481FF1F10B50C46054BD3F8D8101831FFF70CFA01212046FFF774FD37
:4012400010BD00BF8481FF1F70B4C368DB689A6AD969186A8860196AD8694860516803F11800814201D1196A5160002199621168013911602D4AD2F8F020002A38D15A69FC
:401280009968D8688860D9689868486051681C1DA14201D1D968516000215961116801391160DA6A012000FA02F52049D1F8E4002843C1F8E40002EB820290000844426B16
:4012C0009A609068D860906844609460DA6A01F130069500AC18A00030445861AC18A0000844046B01342A44900001440C630DE00E4A9169D9618C681C628C686060886015
:4013000002F114019962516901315161DA6A074BD3F8D830DB6A9A4204D90120034BC3F8F40000E0002070BC704700BF8481FF1F034BD3F8FC200260D3F8EC3043607047EA
:401340008481FF1FF8B504460D46FFF7EBF8134BD3F8EC106268881A2B68B3F1FF3F18D027680E4ED6F8FC60B74205D0914203D300232B6001240DE0984206D21B1A2B607B
:401380002046FFF7D5FF002404E000232B60012400E00024FFF7D6F82046F8BD8481FF1F0122024BC3F8F420704700BF8481FF1F002844D0F8B50346426C013A4264C06A59
:4013C000196C88423DD0002A3DD11C461D1D2846FFF758F950B9E26A012303FA02F21B49D1F8E43023EA0203C1F8E430236CE362C3F10502A261012000FA03F6134AD2F8B1
:40140000E4103143C2F8E41003EB8303990011444B6BA3609968E16099684D609D60E36A02F130079D00EE18B1000E4639446161314611440C6B044432441463F8BD0020E3
:4014400070470020F8BD0020F8BD00BF8481FF1F70B504460E461546FFF764F8224BD3F8D83004F1120253F822309BB91E4BD3F8D8302344012283F84C205DB111462846FF
:40148000FFF752FC4FF08052184B1A60BFF34F8FBFF36F8FFFF756F8FFF744F8124BD3F8D83004F1120253F822508DB146B10E4BD3F8D82004F11203002142F8231007E07E
:4014C000094BD3F8D8206B1E04F1120142F82130054BD3F8D8301C44002384F84C30FFF731F8284670BD00BF8481FF1F04ED00E02DE9F04104460D4617461E46DDF818809C
:40150000FFF710F8B8F1000F05D005F1120354F82330C8F80030631993F84C10C9B2022283F84C20731E032B1FD8DFE803F0020A1217123554F825301F4344F825700125B7
:4015400016E0123554F82530013344F8253001250EE0123544F82570012509E0022906D0123544F82570012502E0012500E00025012945D16369A268E1689160E268A1689E
:4015800051605A68201D824201D1E2685A60002262611A68013A1A60E36A012101FA03F61A4AD2F8E4103143C2F8E41003EB8303990011444B6BA3609968E1609968486018
:4015C0009860E36A02F130079E00F018810039446161F01881001144086B01303344990011440863E16AD2F8D830DB6A994207D94FF08052064B1A60BFF34F8FBFF36F8F8B
:40160000FEF7A0FF2846BDE8F08100BF8481FF1F04ED00E0F0B5EFF311854FF0A00383F31188BFF36F8FBFF34F8F441894F84C30DBB2022684F84C60123150F8214001342F
:4016400040F82140012B5BD12F4BD3F8F030002B38D143698168C4688C60C16884684C605968061DB14201D1C168596000214161196801391960C36A012404FA03F722493B
:40168000D1F8E4403C43C1F8E44003EB83039C000C44636B83609C68C4609C6866609E60C36A01F1300E9F00FE18B40074444461FE18B4000C44266B01363B449C0021445B
:4016C0000E630FE0104B9969C1618C6804628E6800F1180474608C6003F114018162596901315961C16A084BD3F8D830DB6A994206D90AB1012313600122034BC3F8F42072
:4017000085F31188F0BD00BF8481FF1F38B5044610F0070F07D020F007030833984201D3002400E01C46FFF7B9FB124B1B682BB9104A02F10B0323F00703136084B10E4B95
:40174000D3F83C391C4447F6F77294420AD8A3420AD2084A15681D44074BC3F83C4904E0002502E0002500E00025FFF74FFC284638BD00BF8882FF1F50F9FF1F704700BF6B
:40178000FEE700BFF0B40022174611E050F82760F3B226F0FF0608E001EB420511F812406D78A5550132013BDBB2002BF4D101371B2FEBD9F0BC704708B50A46002100F0DA
:4017C000F2FF08BDF8B5164B1B78DBB2154E3478E4B2154F3D78EDB203F00701134A11701B090132137044F00303337045F003033B702023A2F272621370802102F20472F9
:401800001170022102F21F221170033213700A2000F0E6F93D7034704422054B1A70F8BDCF010049F8460040F94600406E5800407658004008B500F0ABFF08BD38B5012201
:40184000314B1A80192502331D70042202331A8002331D704FF40071023319801821023319702A492A48FFF7E5FF0622294B1A705222A3F580731A70274B1B78DBB2274AB1
:40188000137040F62E52264B1A8042F25122023B1A8000240CE0234B1B7803F0010343EA440404F003044FF4F07000F061FC013D0DB1032CEFD115B90320FFF761FF1A4A68
:4018C0004FF48073138007231370002317490B704820023108701370053213700222144B1A7004220A331A70124A137843F007031370013A137843F001031370013A13783D
:4019000043F08003137038BD804000405C06004800410040004300400F010049A14600402242004025420040044000400640004001400040A243004038B572B66122354B38
:401940001A70FFF77BFF344A137843F00403137000240CE0314D630019194A0011462A44084691882858FFF727FF0134E4B2082CF0D900240CE02948A20011194B000344CB
:40198000B3F84020D96B986BFFF754FF0134E4B2012CF0D922494FF09040FFF7F3FE214A214B1A60214A137843F0020313701032137843F0020313701D4C237843F0400366
:4019C0002370A2F58632513A137843F010031370082218491848FFF72DFF0A2217491848FFF728FF082217491748FFF723FF082216491748FFF71EFF164A137843F00803EB
:401A00001370FFF7DFFE0E2221461348FFF712FF38BD00BF00480040E8460040A029000070000048040400C4D806014003500140A0430040380600480251004040060048E3
:401A4000F05100404C06004812510040540600482251004022430040B043004008B500F06BFE03680C2B00D1FEE7FEE708B5094B1A681044084BC31A802B02DC054B1860C0
:401A800005E000F059FE0C2303604FF0FF32104608BD00BFDC80FF1F7006002008B5104E104D16E029686B68AC68002204E051F8040B43F8040B0432A242F8D1E86800222B
:401AC00003E0002143F8041B04328242F9D11035013E002EE6D100F035FEFEF7EFFAFEE701000000142A000008B5104A104B1A60104A136843F40073136000230AE0032B1D
:401B000003D80D4A52F8231000E00C490C4A42F8231001332F2BF2D90A4B1A780A4B1A70074A0A4B1A60FFF707FF08BD0004FA050CED00E014ED00E0000000005D1A0000CA
:401B40000080FF1FBC760040C080FF1F08ED00E0044A137803F0F10300F00E0018431070704700BF03500040044A137803F0BF03800100F04000184310707047005100401E
:401B8000044A137803F07F03C001C0B218431070704700BF00510040044A137803F0FE0300F0010018431070704700BF0051004001BE704710B5044605E0084B186800F0F5
:401BC000D7FAA4F50044B4F5004FF6D8034B586800FB04F000F0CCFA10BD00BFE080FF1F08B5034B1B7A00FB03F000F0C1FA08BDE080FF1F70B504460E46074B1D681F2857
:401C000002D90020FFF7D4FF04F01F04103455F8240045F8246070BD08ED00E038B504460D46072902D90020FFF7C2FF1F2C02D90020FFF7BDFF04F01F0000F1604000F554
:401C400064406D01EDB2057038BD00BF7622084B1A702022033B1A700E22A3F25F131A708F2210331A70002251331A70704700BF8765004010B500F083FA04460A4A13789F
:401C800043F020031370033A137843F010031370FE3A137843F01003137000F01FF8204600F072FA10BD00BF9765004008B5054B1B7823B9FFF7CAFF0122024B1A70FFF772
:401CC000D9FF08BD90020020024B1B780BB1024B187070479002002046640040054A137843F0040313701032137843F004031370704700BFA243004010B582B000F0B6F880
:401D0000314B1B78DBB28DF807309DF8073013F0200F0DD1402200212C4800F044FD2C4C00220023C4E90023FFF7C2F8A06049E0FFF7BEF8274A9060254B9B685360C01AD4
:401D40000021254BC3E90001244B1A680023994208BF904209D3002000211D4BC3E9000140220021194800F01EFD1D4B1B7819490B70174C226802EB42029300134A13443F
:401D800007C983E80700FFF793F8A060D4E90023013243F10003C4E90023002B08BFB2F5407F03D300200021C4E9000100230093FEF7DAF930B10121054A11736A46002104
:401DC000FFF728FC02B010BD6465004060030020980200205003002048030020CC80FF1F45650040014B1B681864704708ED00E04001C0B2014B1870704700BF00E400E03A
:401E00000122014B1A60704700E100E00122014B1A60704780E100E008B5FFF7F7FF0448FFF7E0FF0020FFF7E3FFFFF7E9FF08BDF91C0000054A137843F00203137010320F
:401E4000137843F002031370704700BFA2430040024A137843F080031370704777640040014B1870704700BF87640040014B1878704700BF67640040014B1880704700BF73
:401E80000C6A0040014B188880B270478C6A0040014B1880704700BF4C6A0040014B1880704700BF6C6A004008B501E0FFF7EAFFFFF7DCFF10F0400FF8D108BD08B5134A5C
:401EC000137803F0F80343F001031370137803F0FC031370FFF7E8FF4FF41650FFF7D8FF4FF41650FFF7C8FF0C20FFF7B9FFFFF7BDFF0920FFF7D2FF00F042F9044A137876
:401F000043F01003137000F03FF908BD776400409764004008B5054B1B7823B9FFF7CEFF0122024B1A70FFF793FF08BDAC020020054A137843F0010313701032137843F0AD
:401F400001031370704700BFA243004008B50A280FD00C2802D0082806D102E04FF4805209E04FF4807206E00020FFF721FE002201E04FF480620021084B198042F2107348
:401F800003FB02F313F5806301D503F2FF73DB12034A13600022034B1A8008BD68060020640600206206002010B500F0E9F80446194A137843F0010313701032137843F062
:401FC0000103137002F5AA520832137843F0030313701822114B1A70013B1A7842F040021A701A7802F0FC021A70C822053B1A700222A3F597530C3B1A70094A137843F0B2
:40200000080313700A20FFF7EBFD0422054B1A60204600F0B9F810BDAB43004006590040275B004080E200E010B504460A280DD00C2802D0082804D101E0C22207E042223C
:4020400005E00020FFF7B4FDC22200E08222034B1A702046FFF77AFF10BD00BF0259004008B507210220FFF7D9FD08490220FFF7C1FD074A137843F0060313700C20FFF7C1
:40208000D3FF0022034B1A8008BD00BF35210000015900406006002008B5054B1B7823B9FFF7DEFF0122024B1A70FFF77DFF08BDAD020020024A137843F0010313707047B3
:4020C00000590040034B188880B2034B1B88C01A00B27047A05B00406206002010B4124B1B881BB233B1104B1B881BB203EB83035C0001E00D4B1C680D4B1988411A09B254
:4021000042F2107303FB01F2002903DD04EBD470401003E004EBD47040104042831893FBF4F000B210BC7047680600206406002060060020704700BF054A137843F001031C
:4021400013701032137843F001031370704700BFA1430040044A137803F0FD03400000F0020018431070704720510040000000000230800803D000BF01380046FCD170472B
:40218000EFF3108072B6704780F31088704700BF80F0004002E000BF81F0004142001FBF5FEA410392EA030F7FEA226C7FEA236C6AD04FEA1262D2EB1363C1BFD21841401B
:4021C00048404140B8BF5B42192B88BF704710F0004F40F4000020F07F4018BF404211F0004F41F4000121F07F4118BF494292EA030F3FD0A2F1010241FA03FC10EB0C00A8
:40220000C3F1200301FA03F100F0004302D5494260EB4000B0F5000F13D3B0F1807F06D340084FEA310102F10102FE2A51D2B1F1004F40EBC25008BF20F0010040EA03007E
:402240007047490040EB000010F4000FA2F10102EDD1B0FA80FCACF1080CB2EB0C0200FA0CF0AABF00EBC25052421843BCBFD0401843704792F0000F81F4000106BF80F422
:4022800000000132013BB5E74FEA41037FEA226C18BF7FEA236C21D092EA030F04D092F0000F08BF0846704790EA010F1CBF0020704712F07F4F04D1400028BF40F00040A8
:4022C000704712F100723CBF00F50000704700F0004343F0FE4040F4000070477FEA226216BF08467FEA23630146420206BF5FEA412390EA010F40F4800070474FF0000349
:4023000004E000BF10F0004348BF40425FEA000C08BF704743F0964301464FF000001CE050EA010208BF70474FF000030AE000BF50EA010208BF704711F0004302D54042CF
:4023400061EB41015FEA010C02BF84460146002043F0B64308BFA3F18053A3F50003BCFA8CF2083AA3EBC25310DB01FA02FC634400FA02FCC2F12002BCF1004F20FA02F217
:4023800043EB020008BF20F00100704702F1200201FA02FCC2F1200250EA4C0021FA02F243EB020008BF20EADC7070474FF0FF0C1CEAD0521EBF1CEAD15392EA0C0F93EA55
:4023C0000C0F6FD01A4480EA010C400218BF5FEA41211ED04FF0006343EA501043EA5111A0FB01310CF00040B1F5000F3EBF490041EAD3715B0040EA010062F17F02FD2A4A
:402400001DD8B3F1004F40EBC25008BF20F00100704790F0000F0CF0004C08BF49024CEA502040EA51207F3AC2BFD2F1FF0340EAC250704740F400004FF00003013A5DDCE2
:4024400012F1190FDCBF00F000407047C2F10002410021FA02F1C2F1200200FA02FC5FEA310040F1000053EA4C0308BF20EADC70704792F0000F00F0004C02BF400010F401
:40248000000F013AF9D040EA0C0093F0000F01F0004C02BF490011F4000F013BF9D041EA0C018FE70CEAD15392EA0C0F18BF93EA0C0F0AD030F0004C18BF31F0004CD8D1E0
:4024C00080EA010000F00040704790F0000F17BF90F0004F084691F0000F91F0004F14D092EA0C0F01D142020FD193EA0C0F03D14B0218BF084608D180EA010000F00040E5
:4025000040F0FE4040F40000704740F0FE4040F4400070474FF0FF0C1CEAD0521EBF1CEAD15392EA0C0F93EA0C0F69D0A2EB030280EA010C49024FEA402037D04FF08053C2
:4025400043EA111143EA10130CF000408B4238BF5B0042F17D024FF4000C8B4224BF5B1A40EA0C00B3EB510F24BFA3EB510340EA5C00B3EB910F24BFA3EB910340EA9C00B3
:40258000B3EBD10F24BFA3EBD10340EADC001B0118BF5FEA1C1CE0D1FD2A3FF650AF8B4240EBC25008BF20F0010070470CF0004C4CEA50207F32C2BFD2F1FF0340EAC25018
:4025C000704740F400004FF00003013A37E792F0000F00F0004C02BF400010F4000F013AF9D040EA0C0093F0000F01F0004C02BF490011F4000F013BF9D041EA0C0195E794
:402600000CEAD15392EA0C0F08D142027FF47DAF93EA0C0F7FF470AF084676E793EA0C0F04D14B023FF44CAF08466EE730F0004C18BF31F0004CCAD130F000427FF45CAFA2
:4026400031F000437FF43CAF5FE700BF4FF0FF3C06E000BF4FF0010C02E000BF4FF0010C4DF804CD4FEA40024FEA41037FEA226C18BF7FEA236C11D001B052EA530C18BF63
:4026800090EA010F58BFB2EB030088BFC81738BF6FEAE17018BF40F0010070477FEA226C02D15FEA402C05D17FEA236CE4D15FEA412CE1D05DF8040B704700BF84460846F8
:4026C0006146FFE70FB5FFF7C9FF002848BF10F1000F0FBD4DF808EDFFF7F4FF0CBF012000205DF808FB00BF4DF808EDFFF7EAFF34BF012000205DF808FB00BF4DF808EDDC
:40270000FFF7E0FF94BF012000205DF808FB00BF4DF808EDFFF7D2FF94BF012000205DF808FB00BF4DF808EDFFF7C8FF34BF012000205DF808FB00BF014B1868704700BFE9
:402740005081FF1F0E4B70B51E460E4C0025E41AA410A54204D056F8253098470135F8E700F046F9084B094C1E46E41AA4100025A54204D056F8253098470135F8E770BD74
:40278000FC290000FC290000FC290000042A000010B5431E0A44914204D011F8014B03F8014FF8E710BD03460244934202D003F8011BFAE770470000194B10B51C68A36B75
:4027C000D3B9182000F032F843F20E33A06303804AF6CD33438041F2342383804EF26D63C3804DF6EC630381052343810B23838101220023C0E90423A16B0A4C0B6948694B
:402800005C43094A02FB0040A3FB02230132034443F10003C1E9042323F0004010BD00BF5081FF1F2DF451582D7F954C024B0146186800F003B800BF5081FF1F70B5CD1C84
:4028400025F0030508350C2D38BF0C25002D064601DBA94202D90C23336046E000F05CF8234B1C681A462146A1B10B685B1B0ED40B2B03D90B60CC18CD501EE08C420BBF6C
:4028800063684B681360636018BF0C4615E00C464968E9E7174C23681BB9304600F02CF820602946304600F027F8431C18D0C41C24F00304A0420DD12560304600F02DF8A1
:4028C00004F10B00231D20F00700C31A0ED05A42E25070BD211A304600F00EF80130EBD10C233360304600F018F8002070BD00BFB4020020B002002038B5064C002305469E
:4029000008462360FFF7B2F8431C02D1236803B12B6038BD6C06002070477047000000007461736B55736572436F646547656E657261746F72000000557365724275747483
:402940006F6E436F6E74726F6C00000056656869636C6542617474657279566F6C746167650000000F0A00000C0E000053797374656D4D657373656E67657200506F776530
:40298000724D6F6E69746F72696E67416E64436F6E74726F6C00000049444C4500000000305100404000C051004010000000014000100014014080000015014080010017F7
:4029C0000140000500400140000A004C0140000200500140200000008014014038050048800080160140B8050048800043000000F8B500BFF8BC08BC9E4670474D00000081
:402A0000E91A0000F8B500BFF8BC08BC9E46704729000000282A0000C880FF1F900000001885000000000000000000000500000014050000AAAAAAAA0400000070060020A6
:402A40000000059A0A3401004F000000B643B3040000000000000000000000000000000000000000000000000000000000000000EC29000000000000000000000000000064
:402A8000000000000000000000000000000000000000000000000000000000000000000000000000000000000000000000000000F080FF1F00000000000000000000000088
:402AC00000000000000000000000000000000000000000000000000000000000000000000000000000000000000000000000000000000000000000000000000000000000D6
:402B00000000000000000000000000000000000000000000000000000000000000000000000000000000000000000000000000000000000000000000000000000000000095
:402B40000000000000000000000000000000000000000000000000000000000000000000000000000000000000000000000000000000000000000000000000000000000055
:402B80000000000000000000000000000000000000000000000000000000000000000000000000000000000000000000000000000000000000000000000000000000000015
:020000040003F7
:0200000480007A
:40000000014500400352004002640040026500405F040140340501405B0601404A07014001090140010B01401514014047150140331601405517014002190140011B014077
:400040000340014006410140044201400543014005460140044701400748014002490140064C0140074D014008500140015101407E02781079107C40860F876B843887764F
:40008000010802050307061D071509110A1D0B060E011001121C1602171119401A151B071C011D111E1C1F0623172520260527072A052B172E1B2F113011320433053409F5
:4000C00035033603377839023AA23BE83E04580459045C115F018009818082D08313841086AC88DC8A228C14952C9603974399719B069C0C9E719F0CA171A220A30EA4107C
:40010000A640A708B21FB330B50FB6E0B7C0B988BAA0BB20BF04C002C640C9FFCA0FCBFFCC40CD20CEF0CF05D008D804D904DA04DC22DD02DF01E040E1A8E240E32000288C
:40014000018202200402060107180AA50B010C400E20120A130415011610188019A21A241E281F482101220E2305240225102680272829A22B102C402F6032643680371866
:4001800039023A283B043C203E023F2247204D014F0256105720C0FFC2AFC437CACFCC7ECE87D020E840002502DA0505070808480A250D01101F110412E01308170118E3FD
:4001C0001A1C1C031EFC20E02105221C2308270228E329052A1C2B082C922D0D2E25310C34FF35033E1040214104450E47BC483149FF4AFF4BFF4EF04F44500C54015804B7
:4002000059045A045B045C205D225F0166C06A406B02813C820383C0880189CC8B308C048D548FA891C09330950199CC9B309C049D0C9FF0ADA8AF56B1FCB202B302B4046C
:40024000B501B601B820BE50BF10D280D40BD604D804D904DB04DC20DE80DF0500500102064408800CA00D010E4610081320140515201701181019501F20208423102521AA
:40028000270428012C842E402F2030A03309370539223A803C803E844440460247104D084E205601570459415B205C225E805F0460806104621073407801828490809101AB
:4002C000920893809680984099A09A2A9E019F10A110A286A308A414AE21C05BC2D1C4D0CAF8CCCFCE5DD0B0D6FDD807DE01EE01EE01E840020408011202250126022A0988
:400300002E04300132083404350136023E513F1054185604580459045B045D205F0100100380042805C0064007400A400B400D020E060F12102811801450168A17201815C6
:4003400019011D201E601F082304242825402602270429082C402D802E082F083203341037453E043F824410452347014C244F4057805A02604580108340861292049310A8
:4003800094689704981099489AC09B209D01A008A101A201A610C0FAC2F8C4F7CAF2CCF0CED0D0E0D230D601D80DE280000203150401050307140801090A0B141401180107
:4003C00019131B0C1C021F08211323043001330F3603371038803B083E013F40405649FF4AFF4BFF4DA04F0150185608580459045A045B045C225D905F0160406280644083
:400400006540668068406A506BA86C406D206E506FA800900201042A08010C100E2A1008134018141A031B101E4220A8210422602640271029A02A092F4032663680371045
:40044000388039083A203D213F084004420149064E014F20500852105A405D4064016540682069226B017001720473208D4090809101920893D0944095229680970499A813
:400480009AE89C019D079E109F11A111A286A304A43CA641A806A910AA20AD20AE40B420B704C073C2E8C403CA8FCC3FCEEED00CD230D618D810E040E804EE02E804EE0208
:4004C000E28033883640CC7000405304A640A788C040D4209708A640A788B4409708A640A780AB08EE801A809820B420C608E8020B409820AA40C20804408C409708AB80A9
:40050000AE40C080EE608B0497087F029820A302AB02AF40DE041902782089029820C608DE02E201000702140A071007110112141A071B01003B00000000010C9C08600028
:4005400070008400100F02F000008C7300F3100C40FF00000033600000110200FC040000200C00F3F0220800E0307C4C030F0080008008280000100064030500020C0E0098
:4005800005FFFFFF62A0F0410C00000000000000040404002202000100000000000040020010301000101012000000000000000000000000000000000000000000040022DF
:4005C00002060020000006060001013C000000060000002E00020004000300040000000601000006000402020007040801100220200000AA0000500012000000005EC002A1
:400600001BFFFFFF00AF0701180000000000021004040404102000014000800040408000400050A8402050A80000000000000000000000000000000004C3FB00020000006C
:400640005000081010001000E0000000000B0B000000000000020200000000003C0018010000000000000000000000000000000000000000000000000000000000000000A3
:40068000000000000000000000000000000000000000000000000000000000000000000000000000000000000000000000000000000000000000000000000000000000003A
:4006C00000000000000000000000000000000000000000000000000000000000000000000000000000000000000000000000000000000000000000000000000000000000FA
:4007000000000000000000000000000000000000000000000000000000000000000000000000000000000000000000000000000000000000000000000000000000000000B9
:400740000000000000000000000000000000000000000000000000000000000000000000000000000000000000000000000000000000000000000000000000000000000079
:0200000490006A
:0400000000004005B7
:0200000490105A
:04000000BC90ACAF55
:0200000490303A
:02000000C7F83F
:0200000490402A
:4000000000000000000000000000000000000000000000000000000000000000000000000000000000000000000000000000000000000000000000000000000000000000C0
:400040000000000000000000000000000000000000000000000000000000000000000000000000000000000000000000000000000000000000000000000000000000000080
:400080000000000000000000000000000000000000000000000000000000000000000000000000000000000000000000000000000000000000000000000000000000000040
:4000C0000000000000000000000000000000000000000000000000000000000000000000000000000000000000000000000000000000000000000000000000000000000000
:0200000490501A
:0C00000000012E16106900012E28D861A6
:00000001FF